:10052A00010D01011001010F000813AA0A48D03079
:10053A00225971011100011C00011E000112000163
:0B054A000800010E0004090000000082
:10055600EF600EE50F64017010D28343DE20F50FC5
:0A05660022750F0153DEDFC283226D
:0B058100E50F600643DE20E4F50F22CA
:0B058C00E50F700653DEDF750F012243
:03006B0002006E22
:10006E00C0E0C0F0C083C082C0D075D000C000C058
:10007E0001C002C003C004C005C006C007C2DDE552
:10008E000C2401F50CE4350BF50BE4350AF50AE406
:10009E003509F509E50E14603D146066147003020F
:1000AE0001C524036003020207120581E47F597E15
:1000BE0001FDFCAB0CAA0BA90AA809C312057050CE
:1000CE0003020207750E01750C00750B00750A0010
:1000DE0075090002020712058CE47FADFEFDFCAB34
:1000EE000CAA0BA90AA809C3120570500302020735
:1000FE00750C00750B00750A00750900750E02026D
:10010E000207E51C700874132508F8E6F512E512CF
:10011E0030E737E47F15FEFDFCAB0CAA0BA90AA84D
:10012E0009C312057050051205818053E47F56FEF7
:10013E00FDFCAB0CAA0BA90AA809D3120570400549
:10014E00751E01803A12058C8035E47F15FEFDFC8C
:10015E00AB0CAA0BA90AA809C3120570500512050B
:10016E0081801CE47F2BFEFDFCAB0CAA0BA90AA818
:10017E0009D31205704005751E01800312058CE52A
:10018E001E6076751E00E51225E0F512051CE51CB5
:10019E0064087015F51C0508C3E50894087480946E
:1001AE00804006750800750E03750C00750B007502
:1001BE000A007509008042E47F15FEFDFCAB0CAA17
:1001CE000BA90AA809C312057050051205818029D2
:1001DE00E47FB87E0BFDFCAB0CAA0BA90AA809C3E1
:1001EE00120570500512058C800F750C00750B00F2
:1001FE00750A00750900750E00D007D006D005D01F
:10020E0004D003D002D001D000D0D0D082D083D081
:04021E00F0D0E0320A
:10005300EF1FAC0670011E4C600B00000000000097
:0600630000000080EB220A
:1002CE00E4F5B1F5B2F5B3F5B4F5ACF5ADC28343D3
:1002DE00DE20A2AF920075C7AA75C755759101535E
:1002EE00B7F843B70575C7AA75C755F591A2009221
:1002FE00AFA2AF920075C7AA75C75575910143B7E6
:10030E001053D8DF75C7AA75C755F591A20092AFE5
:10031E0043DF0253DFFAF5D175D968A2AF9200C25E
:10032E00AF75C7AA75C755439101A20092AFF5C527
:10033E0075CD40A2AF9200C2AF75C7AA75C755530F
:10034E0091FEA20092AF439B08D2AFD2DED2DF80E5
:02035E00FE227D
:1003FE008F248E238D228C21538EF7438901D28C2C
:10040E00E4FFFEFDFCAB24AA23A922A821C31205FA
:10041E00706025758AFF758CFF308DFDC28DE524C9
:10042E0024FFF524E52334FFF523E52234FFF522DE
:0B043E00E52134FFF52180C8C28C22AC
:100449008F288E278D268C25538EF7438901D28CD0
:10045900E4FFFEFDFCAB28AA27A926A825C312059F
:10046900706025758A7E758CFF308DFDC28DE528FB
:1004790024FFF528E52734FFF527E52634FFF5267F
:0B048900E52534FFF52580C8C28C2259
:100494008F2C8E2B8D2A8C29538EF7438901D28C75
:1004A400E4FFFEFDFCAB2CAA2BA92AA829C3120544
:1004B400706025758ACA758CFA308DFDC28DE52C65
:1004C40024FFF52CE52B34FFF52BE52A34FFF52A20
:0B04D400E52934FFF52980C8C28C2206
:1004DF008F308E2F8D2E8C2D538EEF438910D28E11
:1004EF00E4FFFEFDFCAB30AA2FA92EA82DC31205E9
:1004FF00706025758BEA758DCB308FFDC28FE5301F
:10050F0024FFF530E52F34FFF52FE52E34FFF52EC0
:0B051F00E52D34FFF52D80C8C28E22B0
:1003B0008F348E338D328C3153C9BF53C9DF43C95B
:1003C00010D2CAE4FFFEFDFCAB34AA33A932A83137
:1003D000C3120570602575CC3075CDF830CFFDC2E5
:1003E000CFE53424FFF534E53334FFF533E532341B
:0E03F000FFF532E53134FFF53180C8C2CA2274
:100003008F388E378D368C3575C40743C408E4FFAB
:10001300FEFDFCAB38AA37A936A835C312057060BC
:100023002B75C52C75C6CFE5C45410641070F853F6
:10003300C4EFE53824FFF538E53734FFF537E53607
:1000430034FFF536E53534FFF53580C253C4F72266
:100360008F3C8E3B8D3A8C3975C40743C408E4FF3B
:10037000FEFDFCAB3CAA3BA93AA839C3120570604C
:100380002B75C5D875C6FFE5C45410641070F853BA
:10039000C4EFE53C24FFF53CE53B34FFF53BE53A93
:1003A00034FFF53AE53934FFF53980C253C4F722FA
:03000000020222D7
:1002220075C7AA75C75575FD5A75C7AA75C755759D
:10023200FDA5787FE4F6D8FD9000007FFF7E03E401
:0C024200F0A3DFFCDEFA75813C020289AB
:10024E000202CEE493A3F8E493A34003F68001F2F6
:10025E0008DFF48029E493A3F85407240CC8C333B1
:10026E00C4540F4420C8834004F456800146F6DF80
:10027E00E4800B010204081020408090052AE47EE1
:10028E00019360BCA3FF543F30E509541FFEE49375
:10029E00A360010ECF54C025E060A840B8E493A33C
:1002AE00FAE493A3F8E493A3C8C582C8CAC583CA67
:1002BE00F0A3C8C582C8CAC583CADFE9DEE780BE1F
:0105550000A5
:10057000EB9FF5F0EA9E42F0E99D42F0E89C45F0E1
:010580002258
:00000001FF
